:100000000428FF3FFF3FFF3F193003138316990079
:1000100018152C2186018801FF3083168500860182
:10002000880102309F008312881447217008031949
:100030002C283C217008A0007008AC001C2124284A
:10004000C5202C2898202C282008313A0319202874
:100050002008303A03192228A701F22070088312E1
:10006000A1007108A2000130A700F22070088312DD
:10007000A3007108A4000230A700F22070088312C8
:10008000A5007108A60065200330FC00FF30FB00CE
:10009000FF30FA00FC0B4D285428FB0B5028532846
:1000A000FA0B50284D284A288C30FB00FF30FA000C
:1000B000FB0B5B285E28FA0B5B285828A130FA005E
:1000C000FA0B602800001328642800300313831201
:1000D000861B0130F1007108AC001C210030061BAA
:1000E0000130F1007108AC001C212108AC001C217A
:1000F0000030861A0130F1007108AC001C2100307C
:10010000061A0130F1007108AC001C21003086197C
:100110000130F1007108AC001C21003006190130DB
:10012000F1007108AC001C212308AC001C21080060
:1001300047217008031998283C217008A000AC28BA
:100140008613C4280613C4288612C4280612C4289D
:100150008611C4280611C4282008413A0319A02892
:100160002008423A0319A2282008433A0319A42878
:100170002008443A0319A6282008453A0319A8285C
:100180002008463A0319AA280800472170080319D5
:10019000C5283C217008A000D9288617F128061729
:1001A000F1288616F1280616F1288615F12806157D
:1001B000F1282008413A0319CD282008423A0319B2
:1001C000CF282008433A0319D1282008443A0319BC
:1001D000D3282008453A0319D5282008463A0319A0
:1001E000D7280800C030031383129F002708F000AF
:1001F000F00D7010F00D701070089F0483169F179B
:1002000083121F1450219F149F1C082900000429E9
:100210001F100830F2001E08F000F10172080319E7
:100220001629F00DF10D7010FF3F0F2983161E08DF
:10023000F0040030F104080000300313831698180E
:100240000130F1007108003A031D282900001C2923
:1002500083122C0899000800031383169816903017
:100260008312980083168717071383128C1E3B296D
:100270001A08AB0035290800031383121A08AC00D2
:10028000981C4429181218162C08F0000800003099
:10029000031383128C1A0130F1007108F00008007A
:1002A000073003138312FA00FA0B54290800FF3FAA
:04400E00FFFFFFFFB2
:00000001FF
